{
  "contractName": "ItemManager",
  "abi": [
    {
      "anonymous": false,
      "inputs": [
        {
          "indexed": false,
          "internalType": "uint256",
          "name": "_itemIndex",
          "type": "uint256"
        },
        {
          "indexed": false,
          "internalType": "uint8",
          "name": "_rating",
          "type": "uint8"
        }
      ],
      "name": "ItemRated",
      "type": "event"
    },
    {
      "anonymous": false,
      "inputs": [
        {
          "indexed": false,
          "internalType": "uint256",
          "name": "_itemIndex",
          "type": "uint256"
        },
        {
          "indexed": false,
          "internalType": "uint256",
          "name": "_step",
          "type": "uint256"
        },
        {
          "indexed": false,
          "internalType": "address",
          "name": "_itemAddress",
          "type": "address"
        }
      ],
      "name": "SupplyChainStep",
      "type": "event"
    },
    {
      "inputs": [],
      "name": "_owner",
      "outputs": [
        {
          "internalType": "address payable",
          "name": "",
          "type": "address"
        }
      ],
      "stateMutability": "view",
      "type": "function",
      "constant": true
    },
    {
      "inputs": [],
      "name": "isOwner",
      "outputs": [
        {
          "internalType": "bool",
          "name": "",
          "type": "bool"
        }
      ],
      "stateMutability": "view",
      "type": "function",
      "constant": true
    },
    {
      "inputs": [],
      "name": "itemIndex",
      "outputs": [
        {
          "internalType": "uint256",
          "name": "",
          "type": "uint256"
        }
      ],
      "stateMutability": "view",
      "type": "function",
      "constant": true
    },
    {
      "inputs": [
        {
          "internalType": "uint256",
          "name": "",
          "type": "uint256"
        }
      ],
      "name": "items",
      "outputs": [
        {
          "internalType": "contract Item",
          "name": "_item",
          "type": "address"
        },
        {
          "internalType": "string",
          "name": "_identifier",
          "type": "string"
        },
        {
          "internalType": "string",
          "name": "_description",
          "type": "string"
        },
        {
          "internalType": "uint256",
          "name": "_itemPrice",
          "type": "uint256"
        },
        {
          "internalType": "enum ItemManager.SupplyChainState",
          "name": "_state",
          "type": "uint8"
        },
        {
          "internalType": "address",
          "name": "_buyer",
          "type": "address"
        },
        {
          "internalType": "uint8",
          "name": "_rating",
          "type": "uint8"
        },
        {
          "internalType": "bool",
          "name": "_isRated",
          "type": "bool"
        }
      ],
      "stateMutability": "view",
      "type": "function",
      "constant": true
    },
    {
      "inputs": [
        {
          "internalType": "string",
          "name": "_identifier",
          "type": "string"
        },
        {
          "internalType": "uint256",
          "name": "_itemPrice",
          "type": "uint256"
        },
        {
          "internalType": "string",
          "name": "_description",
          "type": "string"
        }
      ],
      "name": "createItem",
      "outputs": [],
      "stateMutability": "nonpayable",
      "type": "function"
    },
    {
      "inputs": [
        {
          "internalType": "uint256",
          "name": "_itemIndex",
          "type": "uint256"
        }
      ],
      "name": "triggerPayment",
      "outputs": [],
      "stateMutability": "payable",
      "type": "function",
      "payable": true
    },
    {
      "inputs": [
        {
          "internalType": "uint256",
          "name": "_itemIndex",
          "type": "uint256"
        }
      ],
      "name": "triggerDelivery",
      "outputs": [],
      "stateMutability": "nonpayable",
      "type": "function"
    },
    {
      "inputs": [
        {
          "internalType": "uint256",
          "name": "_itemIndex",
          "type": "uint256"
        },
        {
          "internalType": "uint8",
          "name": "_rating",
          "type": "uint8"
        }
      ],
      "name": "submitRating",
      "outputs": [],
      "stateMutability": "nonpayable",
      "type": "function"
    },
    {
      "inputs": [
        {
          "internalType": "uint256",
          "name": "_itemIndex",
          "type": "uint256"
        }
      ],
      "name": "getRating",
      "outputs": [
        {
          "internalType": "uint8",
          "name": "",
          "type": "uint8"
        }
      ],
      "stateMutability": "view",
      "type": "function",
      "constant": true
    }
  ],
  "bytecode": "0x608060405234801561001057600080fd5b50336000806101000a81548173ffffffffffffffffffffffffffffffffffffffff021916908373ffffffffffffffffffffffffffffffffffffffff160217905550612371806100606000396000f3fe608060405260043610620000925760003560e01c8063b0ee0e9f1162000061578063b0ee0e9f1462000143578063b2bdfa7b1462000187578063bfb231d214620001b7578063cd31831e1462000202578063e07bb1a714620002305762000092565b80633457770d146200009757806378bd80b614620000c5578063800fb83f14620000f35780638f32d59b1462000113575b600080fd5b348015620000a457600080fd5b50620000c36004803603810190620000bd919062000f63565b62000260565b005b348015620000d257600080fd5b50620000f16004803603810190620000eb91906200103b565b62000475565b005b6200011160048036038101906200010b919062001082565b6200070c565b005b3480156200012057600080fd5b506200012b6200093e565b6040516200013a9190620010d1565b60405180910390f35b3480156200015057600080fd5b506200016f600480360381019062000169919062001082565b62000995565b6040516200017e9190620010ff565b60405180910390f35b3480156200019457600080fd5b506200019f62000a28565b604051620001ae919062001161565b60405180910390f35b348015620001c457600080fd5b50620001e36004803603810190620001dd919062001082565b62000a4c565b604051620001f998979695949392919062001328565b60405180910390f35b3480156200020f57600080fd5b506200022e600480360381019062000228919062001082565b62000c1b565b005b3480156200023d57600080fd5b506200024862000d9e565b604051620002579190620013c4565b60405180910390f35b60003083600254604051620002759062000da4565b62000283939291906200141a565b604051809103906000f080158015620002a0573d6000803e3d6000fd5b5090508060016000600254815260200190815260200160002060000160006101000a81548173ffffffffffffffffffffffffffffffffffffffff021916908373ffffffffffffffffffffffffffffffffffffffff16021790555083600160006002548152602001908152602001600020600101908162000321919062001683565b5081600160006002548152602001908152602001600020600201908162000349919062001683565b508260016000600254815260200190815260200160002060030181905550600060016000600254815260200190815260200160002060040160006101000a81548160ff02191690836002811115620003a657620003a562001283565b5b0217905550600060016000600254815260200190815260200160002060040160166101000a81548160ff0219169083151502179055507fa4035636e99f06b7651a604c1019fa4e8779fe68ef27eeb74dff2de348f6199b60025460016000600254815260200190815260200160002060040160009054906101000a900460ff1660028111156200043b576200043a62001283565b5b836040516200044d939291906200176a565b60405180910390a1600260008154809291906200046a90620017d6565b919050555050505050565b6002808111156200048b576200048a62001283565b5b6001600084815260200190815260200160002060040160009054906101000a900460ff166002811115620004c457620004c362001283565b5b1462000507576040517f08c379a0000000000000000000000000000000000000000000000000000000008152600401620004fe9062001899565b60405180910390fd5b6001600083815260200190815260200160002060040160019054906101000a900473ffffffffffffffffffffffffffffffffffffffff1673ffffffffffffffffffffffffffffffffffffffff163373ffffffffffffffffffffffffffffffffffffffff1614620005ae576040517f08c379a0000000000000000000000000000000000000000000000000000000008152600401620005a59062001931565b60405180910390fd5b60018160ff1610158015620005c7575060058160ff1611155b62000609576040517f08c379a00000000000000000000000000000000000000000000000000000000081526004016200060090620019a3565b60405180910390fd5b6001600083815260200190815260200160002060040160169054906101000a900460ff161562000670576040517f08c379a0000000000000000000000000000000000000000000000000000000008152600401620006679062001a15565b60405180910390fd5b806001600084815260200190815260200160002060040160156101000a81548160ff021916908360ff160217905550600180600084815260200190815260200160002060040160166101000a81548160ff0219169083151502179055507fb6a9546aac0438dc3a07ddea666e01c2b4d21fb18d98b96397670c2f7cd1ed7b82826040516200070092919062001a37565b60405180910390a15050565b3460016000838152602001908152602001600020600301541462000767576040517f08c379a00000000000000000000000000000000000000000000000000000000081526004016200075e9062001ab4565b60405180910390fd5b600060028111156200077e576200077d62001283565b5b6001600083815260200190815260200160002060040160009054906101000a900460ff166002811115620007b757620007b662001283565b5b14620007fa576040517f08c379a0000000000000000000000000000000000000000000000000000000008152600401620007f19062001b26565b60405180910390fd5b600180600083815260200190815260200160002060040160006101000a81548160ff0219169083600281111562000836576200083562001283565b5b0217905550336001600083815260200190815260200160002060040160016101000a81548173ffffffffffffffffffffffffffffffffffffffff021916908373ffffffffffffffffffffffffffffffffffffffff1602179055507fa4035636e99f06b7651a604c1019fa4e8779fe68ef27eeb74dff2de348f6199b816001600084815260200190815260200160002060040160009054906101000a900460ff166002811115620008eb57620008ea62001283565b5b6001600085815260200190815260200160002060000160009054906101000a900473ffffffffffffffffffffffffffffffffffffffff1660405162000933939291906200176a565b60405180910390a150565b60008060009054906101000a900473ffffffffffffffffffffffffffffffffffffffff1673ffffffffffffffffffffffffffffffffffffffff163373ffffffffffffffffffffffffffffffffffffffff1614905090565b60006001600083815260200190815260200160002060040160169054906101000a900460ff16620009fd576040517f08c379a0000000000000000000000000000000000000000000000000000000008152600401620009f49062001b98565b60405180910390fd5b6001600083815260200190815260200160002060040160159054906101000a900460ff169050919050565b60008054906101000a900473ffffffffffffffffffffffffffffffffffffffff1681565b60016020528060005260406000206000915090508060000160009054906101000a900473ffffffffffffffffffffffffffffffffffffffff169080600101805462000a979062001486565b80601f016020809104026020016040519081016040528092919081815260200182805462000ac59062001486565b801562000b165780601f1062000aea5761010080835404028352916020019162000b16565b820191906000526020600020905b81548152906001019060200180831162000af857829003601f168201915b50505050509080600201805462000b2d9062001486565b80601f016020809104026020016040519081016040528092919081815260200182805462000b5b9062001486565b801562000bac5780601f1062000b805761010080835404028352916020019162000bac565b820191906000526020600020905b81548152906001019060200180831162000b8e57829003601f168201915b5050505050908060030154908060040160009054906101000a900460ff16908060040160019054906101000a900473ffffffffffffffffffffffffffffffffffffffff16908060040160159054906101000a900460ff16908060040160169054906101000a900460ff16905088565b6001600281111562000c325762000c3162001283565b5b6001600083815260200190815260200160002060040160009054906101000a900460ff16600281111562000c6b5762000c6a62001283565b5b1462000cae576040517f08c379a000000000000000000000000000000000000000000000000000000000815260040162000ca59062001b26565b60405180910390fd5b60026001600083815260200190815260200160002060040160006101000a81548160ff0219169083600281111562000ceb5762000cea62001283565b5b02179055507fa4035636e99f06b7651a604c1019fa4e8779fe68ef27eeb74dff2de348f6199b816001600084815260200190815260200160002060040160009054906101000a900460ff16600281111562000d4b5762000d4a62001283565b5b6001600085815260200190815260200160002060000160009054906101000a900473ffffffffffffffffffffffffffffffffffffffff1660405162000d93939291906200176a565b60405180910390a150565b60025481565b6107818062001bbb83390190565b6000604051905090565b600080fd5b600080fd5b600080fd5b600080fd5b6000601f19601f8301169050919050565b7f4e487b7100000000000000000000000000000000000000000000000000000000600052604160045260246000fd5b62000e1b8262000dd0565b810181811067ffffffffffffffff8211171562000e3d5762000e3c62000de1565b5b80604052505050565b600062000e5262000db2565b905062000e60828262000e10565b919050565b600067ffffffffffffffff82111562000e835762000e8262000de1565b5b62000e8e8262000dd0565b9050602081019050919050565b82818337600083830152505050565b600062000ec162000ebb8462000e65565b62000e46565b90508281526020810184848401111562000ee05762000edf62000dcb565b5b62000eed84828562000e9b565b509392505050565b600082601f83011262000f0d5762000f0c62000dc6565b5b813562000f1f84826020860162000eaa565b91505092915050565b6000819050919050565b62000f3d8162000f28565b811462000f4957600080fd5b50565b60008135905062000f5d8162000f32565b92915050565b60008060006060848603121562000f7f5762000f7e62000dbc565b5b600084013567ffffffffffffffff81111562000fa05762000f9f62000dc1565b5b62000fae8682870162000ef5565b935050602062000fc18682870162000f4c565b925050604084013567ffffffffffffffff81111562000fe55762000fe462000dc1565b5b62000ff38682870162000ef5565b9150509250925092565b600060ff82169050919050565b620010158162000ffd565b81146200102157600080fd5b50565b60008135905062001035816200100a565b92915050565b6000806040838503121562001055576200105462000dbc565b5b6000620010658582860162000f4c565b9250506020620010788582860162001024565b9150509250929050565b6000602082840312156200109b576200109a62000dbc565b5b6000620010ab8482850162000f4c565b91505092915050565b60008115159050919050565b620010cb81620010b4565b82525050565b6000602082019050620010e86000830184620010c0565b92915050565b620010f98162000ffd565b82525050565b6000602082019050620011166000830184620010ee565b92915050565b600073ffffffffffffffffffffffffffffffffffffffff82169050919050565b600062001149826200111c565b9050919050565b6200115b816200113c565b82525050565b600060208201905062001178600083018462001150565b92915050565b6000819050919050565b6000620011a9620011a36200119d846200111c565b6200117e565b6200111c565b9050919050565b6000620011bd8262001188565b9050919050565b6000620011d182620011b0565b9050919050565b620011e381620011c4565b82525050565b600081519050919050565b600082825260208201905092915050565b60005b838110156200122557808201518184015260208101905062001208565b60008484015250505050565b60006200123e82620011e9565b6200124a8185620011f4565b93506200125c81856020860162001205565b620012678162000dd0565b840191505092915050565b6200127d8162000f28565b82525050565b7f4e487b7100000000000000000000000000000000000000000000000000000000600052602160045260246000fd5b60038110620012c657620012c562001283565b5b50565b6000819050620012d982620012b2565b919050565b6000620012eb82620012c9565b9050919050565b620012fd81620012de565b82525050565b600062001310826200111c565b9050919050565b620013228162001303565b82525050565b60006101008201905062001340600083018b620011d8565b818103602083015262001354818a62001231565b905081810360408301526200136a818962001231565b90506200137b606083018862001272565b6200138a6080830187620012f2565b6200139960a083018662001317565b620013a860c0830185620010ee565b620013b760e0830184620010c0565b9998505050505050505050565b6000602082019050620013db600083018462001272565b92915050565b6000620013ee8262001188565b9050919050565b60006200140282620013e1565b9050919050565b6200141481620013f5565b82525050565b600060608201905062001431600083018662001409565b62001440602083018562001272565b6200144f604083018462001272565b949350505050565b7f4e487b7100000000000000000000000000000000000000000000000000000000600052602260045260246000fd5b600060028204905060018216806200149f57607f821691505b602082108103620014b557620014b462001457565b5b50919050565b60008190508160005260206000209050919050565b60006020601f8301049050919050565b600082821b905092915050565b6000600883026200151f7fffffffffffffffffffffffffffffffffffffffffffffffffffffffffffffffff82620014e0565b6200152b8683620014e0565b95508019841693508086168417925050509392505050565b6000620015646200155e620015588462000f28565b6200117e565b62000f28565b9050919050565b6000819050919050565b620015808362001543565b620015986200158f826200156b565b848454620014ed565b825550505050565b600090565b620015af620015a0565b620015bc81848462001575565b505050565b5b81811015620015e457620015d8600082620015a5565b600181019050620015c2565b5050565b601f8211156200163357620015fd81620014bb565b6200160884620014d0565b8101602085101562001618578190505b620016306200162785620014d0565b830182620015c1565b50505b505050565b600082821c905092915050565b6000620016586000198460080262001638565b1980831691505092915050565b600062001673838362001645565b9150826002028217905092915050565b6200168e82620011e9565b67ffffffffffffffff811115620016aa57620016a962000de1565b5b620016b6825462001486565b620016c3828285620015e8565b600060209050601f831160018114620016fb5760008415620016e6578287015190505b620016f2858262001665565b86555062001762565b601f1984166200170b86620014bb565b60005b8281101562001735578489015182556001820191506020850194506020810190506200170e565b8683101562001755578489015162001751601f89168262001645565b8355505b6001600288020188555050505b505050505050565b600060608201905062001781600083018662001272565b62001790602083018562001272565b6200179f604083018462001317565b949350505050565b7f4e487b7100000000000000000000000000000000000000000000000000000000600052601160045260246000fd5b6000620017e38262000f28565b91507fffffffffffffffffffffffffffffffffffffffffffffffffffffffffffffffff8203620018185762001817620017a7565b5b600182019050919050565b7f4974656d206d7573742062652064656c69766572656420746f2062652072617460008201527f6564210000000000000000000000000000000000000000000000000000000000602082015250565b600062001881602383620011f4565b91506200188e8262001823565b604082019050919050565b60006020820190508181036000830152620018b48162001872565b9050919050565b7f4f6e6c79207468652062757965722063616e207375626d69742061207261746960008201527f6e67210000000000000000000000000000000000000000000000000000000000602082015250565b600062001919602383620011f4565b91506200192682620018bb565b604082019050919050565b600060208201905081810360008301526200194c816200190a565b9050919050565b7f526174696e67206d757374206265206265747765656e203120616e6420352100600082015250565b60006200198b601f83620011f4565b9150620019988262001953565b602082019050919050565b60006020820190508181036000830152620019be816200197c565b9050919050565b7f4974656d2068617320616c7265616479206265656e2072617465642100000000600082015250565b6000620019fd601c83620011f4565b915062001a0a82620019c5565b602082019050919050565b6000602082019050818103600083015262001a3081620019ee565b9050919050565b600060408201905062001a4e600083018562001272565b62001a5d6020830184620010ee565b9392505050565b7f4f6e6c792066756c6c207061796d656e74732061636365707465642100000000600082015250565b600062001a9c601c83620011f4565b915062001aa98262001a64565b602082019050919050565b6000602082019050818103600083015262001acf8162001a8d565b9050919050565b7f4974656d206973206675727468657220696e2074686520636861696e21000000600082015250565b600062001b0e601d83620011f4565b915062001b1b8262001ad6565b602082019050919050565b6000602082019050818103600083015262001b418162001aff565b9050919050565b7f4974656d20686173206e6f74206265656e207261746564207965742100000000600082015250565b600062001b80601c83620011f4565b915062001b8d8262001b48565b602082019050919050565b6000602082019050818103600083015262001bb38162001b71565b905091905056fe608060405234801561001057600080fd5b5060405161078138038061078183398181016040528101906100329190610134565b816000819055508060028190555082600360006101000a81548173ffffffffffffffffffffffffffffffffffffffff021916908373ffffffffffffffffffffffffffffffffffffffff160217905550505050610187565b600080fd5b600073ffffffffffffffffffffffffffffffffffffffff82169050919050565b60006100b98261008e565b9050919050565b60006100cb826100ae565b9050919050565b6100db816100c0565b81146100e657600080fd5b50565b6000815190506100f8816100d2565b92915050565b6000819050919050565b610111816100fe565b811461011c57600080fd5b50565b60008151905061012e81610108565b92915050565b60008060006060848603121561014d5761014c610089565b5b600061015b868287016100e9565b935050602061016c8682870161011f565b925050604061017d8682870161011f565b9150509250925092565b6105eb806101966000396000f3fe6080604052600436106100385760003560e01c80632986c0e5146102885780633c8da588146102b357806389794d00146102de5761027a565b3661027a57600060015414610082576040517f08c379a000000000000000000000000000000000000000000000000000000000815260040161007990610378565b60405180910390fd5b34600054146100c6576040517f08c379a00000000000000000000000000000000000000000000000000000000081526004016100bd906103e4565b60405180910390fd5b34600160008282546100d8919061043d565b925050819055506000600360009054906101000a900473ffffffffffffffffffffffffffffffffffffffff1673ffffffffffffffffffffffffffffffffffffffff163460025460405160240161012e9190610480565b6040516020818303038152906040527f800fb83f000000000000000000000000000000000000000000000000000000007bffffffffffffffffffffffffffffffffffffffffffffffffffffffff19166020820180517bffffffffffffffffffffffffffffffffffffffffffffffffffffffff83818316178352505050506040516101b8919061050c565b60006040518083038185875af1925050503d80600081146101f5576040519150601f19603f3d011682016040523d82523d6000602084013e6101fa565b606091505b505090508061023e576040517f08c379a000000000000000000000000000000000000000000000000000000000815260040161023590610595565b60405180910390fd5b6002547f4edf5b39e08b0c159ffd68891bacf2cc9020b9d4e9e807b91f94fe88c4435388346040516102709190610480565b60405180910390a2005b34801561028657600080fd5b005b34801561029457600080fd5b5061029d610309565b6040516102aa9190610480565b60405180910390f35b3480156102bf57600080fd5b506102c861030f565b6040516102d59190610480565b60405180910390f35b3480156102ea57600080fd5b506102f3610315565b6040516103009190610480565b60405180910390f35b60025481565b60005481565b60015481565b600082825260208201905092915050565b7f4974656d206973207061696420616c7265616479210000000000000000000000600082015250565b600061036260158361031b565b915061036d8261032c565b602082019050919050565b6000602082019050818103600083015261039181610355565b9050919050565b7f4f6e6c792066756c6c207061796d656e747320616c6c6f776564000000000000600082015250565b60006103ce601a8361031b565b91506103d982610398565b602082019050919050565b600060208201905081810360008301526103fd816103c1565b9050919050565b6000819050919050565b7f4e487b7100000000000000000000000000000000000000000000000000000000600052601160045260246000fd5b600061044882610404565b915061045383610404565b925082820190508082111561046b5761046a61040e565b5b92915050565b61047a81610404565b82525050565b60006020820190506104956000830184610471565b92915050565b600081519050919050565b600081905092915050565b60005b838110156104cf5780820151818401526020810190506104b4565b60008484015250505050565b60006104e68261049b565b6104f081856104a6565b93506105008185602086016104b1565b80840191505092915050565b600061051882846104db565b915081905092915050565b7f546865207472616e73616374696f6e207761736e27742073756363657373667560008201527f6c2c2063616e63656c6c696e6700000000000000000000000000000000000000602082015250565b600061057f602d8361031b565b915061058a82610523565b604082019050919050565b600060208201905081810360008301526105ae81610572565b905091905056fea26469706673582212208f4b6af8b6eac047b741a51be125950c82d4990dc77f9e2b01507fd0b4f90c4d64736f6c63430008120033a2646970667358221220d039fcbaa4af434156c993858b6e3ba438b691d20efbcf8599e0aff0591abcb564736f6c63430008120033",
  "immutableReferences": {},
  "source": "// SPDX-License-Identifier: UNLICENSED\r\npragma solidity ^0.8.18;\r\n\r\nimport \"./Ownable.sol\";\r\nimport \"./Item.sol\";\r\n\r\ncontract ItemManager is Ownable {\r\n    enum SupplyChainState {Created, Paid, Delivered}\r\n\r\n    struct S_Item {\r\n    Item _item;\r\n    string _identifier;\r\n    string _description;  // Thm trng m t\r\n    uint _itemPrice;\r\n    SupplyChainState _state;\r\n    address _buyer;\r\n    uint8 _rating;\r\n    bool _isRated;\r\n    }\r\n\r\n    mapping(uint => S_Item) public items;\r\n    uint public itemIndex; // Ch  l cn public  truy cp t ngoi\r\n\r\n    event SupplyChainStep(uint _itemIndex, uint _step, address _itemAddress);\r\n    event ItemRated(uint _itemIndex, uint8 _rating); \r\n\r\nfunction createItem(string memory _identifier, uint _itemPrice, string memory _description) public {\r\n    Item item = new Item(this, _itemPrice, itemIndex);\r\n    items[itemIndex]._item = item;\r\n    items[itemIndex]._identifier = _identifier;\r\n    items[itemIndex]._description = _description;  // Lu m t vo sn phm\r\n    items[itemIndex]._itemPrice = _itemPrice;\r\n    items[itemIndex]._state = SupplyChainState.Created;\r\n    items[itemIndex]._isRated = false;\r\n    emit SupplyChainStep(itemIndex, uint(items[itemIndex]._state), address(item));\r\n    itemIndex++;\r\n}\r\n\r\n    function triggerPayment(uint _itemIndex) public payable {\r\n        require(items[_itemIndex]._itemPrice == msg.value, \"Only full payments accepted!\");\r\n        require(items[_itemIndex]._state == SupplyChainState.Created, \"Item is further in the chain!\");\r\n        \r\n        items[_itemIndex]._state = SupplyChainState.Paid;\r\n        items[_itemIndex]._buyer = msg.sender; \r\n        emit SupplyChainStep(_itemIndex, uint(items[_itemIndex]._state), address(items[_itemIndex]._item));\r\n    }\r\n\r\n    function triggerDelivery(uint _itemIndex) public {\r\n        require(items[_itemIndex]._state == SupplyChainState.Paid, \"Item is further in the chain!\");\r\n        \r\n        items[_itemIndex]._state = SupplyChainState.Delivered;\r\n        emit SupplyChainStep(_itemIndex, uint(items[_itemIndex]._state), address(items[_itemIndex]._item));\r\n    }\r\n\r\n    function submitRating(uint _itemIndex, uint8 _rating) public {\r\n        require(items[_itemIndex]._state == SupplyChainState.Delivered, \"Item must be delivered to be rated!\");\r\n        require(msg.sender == items[_itemIndex]._buyer, \"Only the buyer can submit a rating!\");\r\n        require(_rating >= 1 && _rating <= 5, \"Rating must be between 1 and 5!\");\r\n        require(!items[_itemIndex]._isRated, \"Item has already been rated!\");\r\n\r\n        items[_itemIndex]._rating = _rating;\r\n        items[_itemIndex]._isRated = true; \r\n        emit ItemRated(_itemIndex, _rating); \r\n    }\r\n\r\n\r\n    function getRating(uint _itemIndex) public view returns (uint8) {\r\n        require(items[_itemIndex]._isRated, \"Item has not been rated yet!\");\r\n        return items[_itemIndex]._rating;\r\n    }\r\n\r\n}",
  "sourcePath": "D:\\LAPTRINH\\blockchain\\GK\\react-box\\react-box\\contracts\\ItemManager.sol",
  "compiler": {
    "name": "solc",
    "version": "0.8.18+commit.87f61d96.Emscripten.clang"
  },
  "schemaVersion": "3.4.16",
  "updatedAt": "2024-10-20T10:39:10.460Z",
  "networkType": "ethereum",
  "devdoc": {
    "kind": "dev",
    "methods": {},
    "version": 1
  },
  "userdoc": {
    "kind": "user",
    "methods": {},
    "version": 1
  }
}